:020000040800F2
:10000000800E0020450100084D0100084F01000846
:1000100051010008530100085501000800000000CC
:100020000000000000000000000000005701000870
:1000300059010008000000005B0100085D01000894
:100040005F0100085F0100085F0100085F01000810
:100050005F0100085F0100085F0100085F01000800
:100060005F0100085F0100085F0100085F010008F0
:100070005F0100085F0100085F0100085F010008E0
:100080005F0100085F0100085F0100085F010008D0
:100090005F0100085F0100085F0100085F010008C0
:1000A0005F0100085F0100085F0100085F010008B0
:1000B000B92100085F0100083D2200085F01000827
:1000C0005F0100085F0100085F0100085F01000890
:1000D0005F01000899240008E1250008692600084E
:1000E0005F0100085F0100085F0100085F01000870
:1000F0005F0100085F0100085F0100085F01000860
:100100005F0100085F0100085F0100085F0100084F
:100110005F0100085F0100085F0100085F0100083F
:100120005F0100085F0100085F0100085F0100082F
:10013000DFF80CD000F04AFC00480047E54000081A
:10014000800E00200648804706480047FEE7FEE78D
:10015000FEE7FEE7FEE7FEE7FEE7FEE7FEE7FEE777
:100160005921000831010008D2B201E000F8012B4A
:10017000491EFBD270470022F6E710B513460A4627
:1001800004461946FFF7F0FF204610BD30B505467E
:100190002A460B4612F8010B13F8014B08B1A04296
:1001A000F8D01CB1002802D06D1CF1E7284630BD04
:1001B000F0B480EA0102D40F4200B2EB410F02D248
:1001C0000246084611464A0042D0C30DDDB2C1F3D3
:1001D000C752AD1A202D35DAC1F3160141F40002E1
:1001E00004B15242C5F1200602FA06F12A41104438
:1001F000B3EBD05F23D0C4B1012DA0EBC35009DC19
:10020000F0BC4FF0004202EAC352DBB200F500003E
:1002100000F00ABB400000F1807000EBC350A0F179
:10022000807040EAD170490009E0490841EAC07194
:10023000A0EBC35000F50000400800EBC350F0BC39
:1002400000F0E9BA6142012202EB4101001BF6E72E
:10025000F0BC704781F00041AAE780F00040A7E7BA
:1002600080EA010210B502F00043400022D04A00AB
:100270001FD0010E01EB1261C0F35600C2F356020B
:1002800040F4000042F40002A0FB022000047F3989
:10029000140400D0401C50EA124001D44000491E12
:1002A000C2B20C0604EBD010401C4008802A02D0D9
:1002B00003E0002010BD20F00100002900DA00203A
:1002C000184310BD30B480EA010202F0004530F05E
:1002D000004221F0004013D090B1C30DD40DC2F301
:1002E0001601C0F31600E41A41F4000140F40002C4
:1002F0007D34914201D3641C00E04900002C02DAF5
:1003000030BC002070474FF400000023914201D31D
:10031000891A034340084FEA4101F7D151B1914294
:1003200002D14FF0004105E002D24FF0010101E09F
:100330006FF0010103EBC450284430BC00F06BBAED
:100340002DE9FE4F804681EA0300C00F0C46009065
:1003500021F0004123F00045B8EB0200A94105D28D
:100360004046214690461C460B46024623F000407C
:10037000104347D0270DC7F30A00C3F30A51029078
:10038000401A019040286BDAC3F3130040F4801B3D
:100390000098924620B10023D2EB030A63EB0B0BCB
:1003A00001985946C0F14002504600F013FA064643
:1003B0000D4650465946019A00F01BFA10EB080012
:1003C0006141002487EA115284EAE7731A4340D05E
:1003D000009A62B3019A012A4FEA075215DC001B0A
:1003E00061EB02014FF0004202EA0752CDE9004200
:1003F000001C41F5801132462B4600F052FA03B042
:10040000BDE8F08F40462146F9E7001B61EB020191
:10041000001C41F5801300185B412018A2F500175D
:1004200047EB030140EAD570B6196D4111E06D0844
:100430004FEA360645EAC0754FEA0752001B61EBEA
:100440000201001C41F5801149084FEA30000019F3
:10045000514132462B4603B0BDE8F04F00F012BACE
:100460000098012240000023D0EB020263EBE0730E
:10047000009821464FEAE074B8EB000061EB0401FC
:10048000E9E783F000435BE781F0004158E72DE99D
:10049000FE4F81EA030404F0004421F0004100947F
:1004A0004FF0000B23F0004350EA01045ED052EA03
:1004B00003045BD0C3F30A54C1F30A552C44A4F2DD
:1004C000F3340194A0FB0254C1F3130141F48011F1
:1004D000C3F3130343F4801301FB024400FB034EF8
:1004E000840A970A44EA815447EA8357A4FB0768C1
:1004F00002958D0A05FB07854FEA932C04FB0C54EB
:100500002705029D4FEA065847EA1637B5EB08055E
:100510006EEB070C870E920E47EA811742EA8312B0
:10052000A7FB0201B6EB0B0164EB00042B0D43EAC1
:100530000C335E1844EB1C50DA465146E7FB0201CF
:10054000C5F313044FEA0B3343EA14534FEA043262
:10055000019C43EA0603A4F10C040294009CCDE93B
:1005600000B400F09EF903B0BDE8F08F0020014612
:10057000F9E72DE9F04D81EA030404F0004B21F086
:10058000004514464FF0000A23F0004150EA0502EE
:1005900020D054EA01021DD0C5F30A570246C5F324
:1005A0001303C1F31300C1F30A5640F4801543F45A
:1005B0008013A7EB0608101BD64608F2FD3873EB34
:1005C000050002D308F1010801E092185B41B8F17F
:1005D000000F03DA00200146BDE8F08D00204FF443
:1005E0008011064684460EE0171B73EB050705D302
:1005F000121B63EB050306434CEA010C49084FEA62
:10060000300092185B4150EA0107EDD152EA030035
:1006100012D082EA040083EA0501084305D0101BCA
:10062000AB4106D20122002306E000224FF0004336
:1006300002E06FF0010253101AEB06004CEB085178
:1006400010EB0A0041EB0B01BDE8F04D00F01AB9C8
:10065000C10F80EAE0700844CA079623002100F029
:10066000E3B896230022114600F0DEB80EB5C10FA4
:1006700080EAE0700844CA07002140F233438DE865
:100680000E000A460B4600F00CF903B000BD00F066
:10069000004220F00040C10DC0F3160040F40000FD
:1006A0007F2901DA00207047962903DCC1F1960109
:1006B000C84001E096398840002AF4D04042704793
:1006C00020F00040C10DC0F3160040F400007F2967
:1006D00001DA00207047962903DCC1F19601C84079
:1006E000704796398840704700F0004230F0004073
:1006F0000AD0C10D01F56071C0F3160042EA015144
:10070000C20840071143704700200146704701F0BE
:10071000004330B421F0004150EA010206D00A0D36
:10072000A2F56072C1F31301002A02DC30BC002084
:100730007047440F44EAC104C100E01830BC00EB2C
:10074000C25000F068B830B50B46014600202022A8
:10075000012409E021FA02F59D4205D303FA02F5CE
:10076000491B04FA02F52844151EA2F10102F1DC2E
:1007700030BD2DE9F05F0546002092469B46884635
:100780000646814640241BE028464146474622460D
:1007900000F02EF953465A46C01A914110D3114623
:1007A0001846224600F016F82D1A67EB01084F464E
:1007B00022460120002100F00DF817EB00094E4100
:1007C000201EA4F10104DFDC484631462A46434698
:1007D000BDE8F09F202A04DB203A00FA02F1002055
:1007E00070479140C2F1200320FA03F3194390406F
:1007F0007047202A06DBCB17203A41FA02F043EA81
:10080000E07306E041FA02F3D040C2F120029140C9
:100810000843194670470029A8BF7047401C49008B
:1008200008BF20F00100704710B4B0FA80FC00FA55
:100830000CF050EA010404BF10BC704749B1CCF180
:10084000200421FA04F411FA0CF118BF012121430C
:100850000843A3EB0C01CB1D4FEA00614FEA1020C7
:1008600042BF002010BC704700EBC3501044002969
:10087000A4BF10BC7047401C490008BF20F0010015
:1008800010BC704710B5141E73F1000408DA401C48
:1008900041F1000192185B411A4301D120F001009F
:1008A00010BD2DE9F04D92469B4611B1B1FA81F28F
:1008B00002E0B0FA80F220329046FFF78BFF044648
:1008C0000F4640EA0A0041EA0B0153465A460843E4
:1008D00013D0114653EA010019D0C8F14002504626
:1008E00000F086F805460E46504659464246FFF748
:1008F00071FF084305D0012004E020463946BDE8D9
:10090000F08D0020054346EAE0762C4337430A98F1
:100910006305E40AA0EB08000022FD0A44EA4754FC
:100920000A3002D500200146E9E7010510196941A6
:10093000DDE9084500196941BDE8F04DA2E770B551
:1009400021F0004303430CD0C1F30A550024D5EB3A
:10095000040564EB0403D617AD1AB34102DB002093
:10096000014670BD201841EB025170BDC1F30A521F
:10097000C1F3130140F2FF3341F480119A4202DACD
:1009800000200146704740F233439A42A2F23342BC
:1009900002DC524200F02CB8FFF71CBF30B5041E39
:1009A00071F1000404DB4FF00044404264EB0101AC
:1009B000141E73F1000405DB1C464FF00043524245
:1009C00063EB0403994208BF904230BD064C074DCB
:1009D00006E0E06840F0010394E80700984710340F
:1009E000AC42F6D3FFF7A8FBDC4A0008FC4A00083B
:1009F000202A04DB203A21FA02F00021704721FA74
:100A000002F3D040C2F120029140084319467047DA
:100A10002DE9F04D00231A461B1A8A4103DB002002
:100A20000146BDE8F08DC1F30A52C1F3130141F450
:100A300080154FF0000BD10702D100186D41521EF6
:100A40000027044640F2FF11384601EB620A3E4699
:100A50008046024600204FF48011FFF7C9FFC219FB
:100A60007141BB1846EB0100B4EB030C75EB000CB5
:100A700004D3E41A65EB000517460E46241908F165
:100A800001006D4180463428E3DDF91946EB06008C
:100A9000091BA84103D24FF0FF32134601E00022A8
:100AA00013461BEB070046EB0A51BDE8F04DFFF77C
:100AB000E9BE000008B50121082001F06FF901200E
:100AC000ADF8000010208DF8030003208DF802001F
:100AD0006946044800F090F901200349086000F0DD
:100AE00099F808BD000C01408081214210B5002416
:100AF0001548006820F00F00134908600846006898
:100B000040F00800086004E0601CC4B2012003F05B
:100B1000F3F80E48006808B1642CF5DB642C01DBA7
:100B2000012010BD002404E0601CC4B2012003F0C9
:100B3000E3F80648006808B9642CF5DB642C01DB97
:100B40000120EEE70020ECE7000C0140008121428B
:100B500010B5002404E0601CC4B2012003F0CCF8FE
:100B60000D48006808B1642CF5DB002404E0601C2B
:100B7000C4B2012003F0C0F80748006808B9642C2B
:100B8000F5DB282003F0B8F80348006808B101201D
:100B900010BD0020FCE700000081214270B5002458
:100BA000002506E06006040EFFF7D2FF0443681C30
:100BB000C5B2082DF6DB204670BD7CB505460E4655
:100BC00000F028F8FFF792FFF8B9002405E0FFF7DE
:100BD000E5FF0DF80400601CC4B2052CF7DB9DF89E
:100BE00000009DF8011008449DF8021008449DF88B
:100BF000031008449DF80410884208D19DF80000B5
:100C000030709DF80200287001E001207CBD0020BA
:100C1000FCE7000010B50C48006820F00F000A49FE
:100C200008600846006840F003000860002007499B
:100C30000860142003F03AF801200549C1F880014A
:100C40001E2003F059F810BD000C014080812142A4
:100C50000080214221B1026842F00102026004E0FA
:100C600002684FF6FE731A400260704701684FF643
:100C7000FE72114001600021016041608160C1602D
:100C80004B49884208D14A490839496841F00F0167
:100C9000474A083A51608AE045491431884208D1F0
:100CA00043490839496841F0F001414A083A516026
:100CB0007DE03F492831884208D13D4908394968DB
:100CC00041F470613A4A083A516070E038493C3169
:100CD000884208D136490839496841F47041344A9C
:100CE000083A516063E032495031884208D13049B6
:100CF0000839496841F470212D4A083A516056E09C
:100D00002B496431884208D129490839496841F49E
:100D10007001274A083A516049E0254978318842F4
:100D200008D123490839496841F07061204A083ADE
:100D300051603CE01F49884206D1011F096841F01B
:100D40000F01021F116032E01A491431884208D1A4
:100D50001849091F096841F0F001164A121F116075
:100D600025E014492831884208D11249091F096831
:100D700041F470610F4A121F116018E00D493C31B7
:100D8000884208D10B49091F096841F47041094A9A
:100D9000121F11600BE007495031884207D1054905
:100DA000091F096841F47021024A121F116070473F
:100DB000080002400804024010B50022026847F60D
:100DC000F0739A430C6A8B6823430C6923434C6984
:100DD00023438C692343CC6923434C6A23438C6AA5
:100DE00023431A430260CB6843600B6883604B68FF
:100DF000C36010BD416070472DE9F04102460025F7
:100E00000026002000230024002791F803C00CF0E6
:100E10000F0591F803C00CF0100CBCF1000F03D0CB
:100E200091F802C04CEA050591F800C0BCF1000F32
:100E300031D0146800202BE04FF0010C0CFA00F3C5
:100E4000B1F800C00CEA03069E4220D183004FF0A7
:100E50000F0C0CFA03F7BC4305FA03FC4CEA04043C
:100E600091F803C0BCF1280F06D14FF0010C0CFA29
:100E700000FCC2F814C00AE091F803C0BCF1480FAE
:100E800005D14FF0010C0CFA00FCC2F810C0401C58
:100E90000828D1D31460B1F800C0BCF1FF0F34DDD5
:100EA000546800202EE000F1080C4FF0010808FA09
:100EB0000CF3B1F800C00CEA03069E4221D1830076
:100EC0004FF00F0C0CFA03F7BC4305FA03FC4CEA95
:100ED000040491F803C0BCF1280F05D100F1080CFF
:100EE00008FA0CF8C2F8148091F803C0BCF1480F5E
:100EF00007D100F1080C4FF0010808FA0CF8C2F80D
:100F00001080401C0828CED35460BDE8F08170B535
:100F100004460D462946204600F04AFC2946204654
:100F200000F0B6FB2946204600F0E6FB29462046A5
:100F300000F0D4FC2946204600F0E0FD70BD000022
:100F400010B5012401214FF47A7001F0A7FD0028AB
:100F500026D014A001F04AFE13E04FF4165001F021
:100F6000CDFA4FF4164001F05FFD4FF4164001F04A
:100F7000C5FA01221049114801F0BCFD01F018FD2D
:100F8000044601214FF47A7001F088FD08B1002C6D
:100F9000E3D10BA001F02AFE4FF4FA7002F086FEB6
:100FA00010BD00004E454F2D364D205365747469B9
:100FB0006E672E2E2E0D0A00A086010040420F0003
:100FC0004E454F2D364D2053657420446F6E65217C
:100FD0000D0A000070B51048008800F40040B8B158
:100FE0000D480088C0F30E05002405E00B48005DA5
:100FF0000B490855601C84B2AC42F7DB002006495F
:101000000880074908550748FFF781FF00F00CF8F2
:10101000701C86B270BD00009600002010070020F2
:101020006E010020D0000020F8B564A001F0DEFDC4
:101030006549D1F84900FFF714FB07466349384674
:10104000FFF740F907460446FFF74EFB05465E48AA
:1010500090F84D002A460B465DA10090624801F0D1
:10106000D5FD614961A001F0C1FD5749486CFFF70A
:10107000F8FA074655493846FFF724F9074604466B
:10108000FFF732FB0546504890F848002A460B46C9
:1010900058A10090544801F0B9FD534953A001F004
:1010A000A5FD4949D1F86300FFF7D2FA0746574931
:1010B0003846FFF707F907460446FFF715FB0546D4
:1010C0002A460B4652A1484801F0A0FD464947A0D8
:1010D00001F08CFD3C49B1F86700FFF7C2FA074602
:1010E00050493846FFF7EEF807460446FFF7FCFA8A
:1010F00005462A460B464CA13B4801F087FD3A497C
:101100003AA001F073FD304890F85C0003280DDC34
:101110002D4890F85C00494951F8202048A13248F8
:1011200001F074FD304931A001F060FD264890F8CF
:101130004F2046A12C4801F069FD2B492BA001F05E
:1011400055FD21480078642190FBF1F201FB120467
:10115000224644A1244801F059FD234923A001F06F
:1011600045FD214921A001F041FD174890F84000BC
:101170000090154890F83F30B0F83D203FA11A4844
:1011800001F044FD1048B0F83D1043A001F02EFDE1
:10119000154916A001F02AFD0B4890F84300009075
:1011A000094890F8423090F841203EA10E4801F0E5
:1011B0002DFD0D490DA001F019FDF8BD0D0A0D0A18
:1011C0000A0A0A0A00000000D00000200050C347AD
:1011D0004C6F6E6769747564653A252E35662025F7
:1011E00031632020200D0A003C0100202573090DE9
:1011F0000A0000004C617469747564653A252E35E7
:1012000066202531632020200000000000002041DE
:10121000416C7469747564653A252E31666D2020C1
:101220002020200000007A4453706565643A252E22
:1012300033666B6D2F6820202020200004000020E2
:10124000466978204D6F64653A25730056616C6974
:101250006420736174656C6C6974653A253032641E
:101260000000000056697369626C652073617465E3
:101270006C6C6974653A2530326400005554432023
:10128000446174653A253034642F253032642F254B
:10129000303264202020000079656172323A256482
:1012A0000D0A00005554432054696D653A253032CB
:1012B000643A253032643A25303264202020000020
:1012C0002DE9F84F6B4602224121682000F05CF9BD
:1012D0009DF801009DF8001040EA01200FFA80FA05
:1012E0005046FFF7C3F9804600220B4BFFF741F948
:1012F00006460A4A0A4BFFF723F80446FFF707FAA7
:10130000834608495846FEF7ABFF0446FFF7BFF98E
:1013100000B2BDE8F88F000000407540A4703D0A9F
:10132000D74342400000C84210B500200E49086073
:101330000E48006820F070400C49086008460068BC
:1013400040F04050086000200949C1F89C0100F0BD
:1013500011F801200449086000F00CF8002004494D
:10136000C1F8980110BD0000980121420008014019
:101370000000214210B5022002F0BEFC10BD0000AA
:1013800010B500200E4908600E48006820F070403B
:101390000C4908600846006840F040500860012091
:1013A0000949C1F89C01FFF7E5FF012004490860E5
:1013B000FFF7E0FF00200449C1F8980110BD0000CC
:1013C00098012142000801400000214270B5054605
:1013D00000241648006820F0704014490860084650
:1013E000006840F000400860002614E0002010492A
:1013F0000860FFF7BFFF01200E49C1F898016006A1
:10140000040E0B487C38006808B1601CC4B2FFF7BA
:10141000B1FF701CC6B2082EE8DB15B9FFF7B0FFAC
:1014200001E0FFF781FF204670BD00000008014089
:10143000980121420000214270B50446124800681C
:1014400020F07040104908600846006840F04050A5
:10145000086000200D490860002512E0E0090B49F2
:10146000091D08606006040E01200949C1F89801B1
:10147000FFF780FF002005490860FFF77BFF681C2D
:10148000C5B2082DEADB70BD000801409801214279
:101490000000214210B50E48006820F070400C4951
:1014A00008600846006840F0405008600120094983
:1014B00008600949C1F89801FFF75CFF0020054961
:1014C0000860FFF757FF00200349C1F8980110BDDD
:1014D000000801409C0121420000214210B50E4845
:1014E000006820F070400C4908600846006840F031
:1014F000405008600020094908600949C1F89C0172
:10150000FFF738FF0120054908600549C1F89C0133
:10151000FFF730FF10BD0000000801409801214294
:101520000000214210B500241448006820F07040EB
:10153000124908600846006840F000400860012039
:101540000F490860FFF716FF01200E49C1F8980106
:10155000FFF710FF07E0601CC4B2FA2C03DDFFF7B1
:10156000BDFF012010BD0648803800680028F2D178
:101570000349091F086000BFF4E7000000080140AC
:101580009C012142000021422DE9F04106460F4610
:1015900014461D46FFF77EFF002141EA4601C8B20E
:1015A000FFF74AFFFFF7BEFF20B1FFF797FF0120CB
:1015B000BDE8F0813846FFF73FFFFFF7B3FFFFF7C5
:1015C00069FF012101EB4601C8B2FFF735FFFFF7C4
:1015D000A9FF0DE0012C04D10020FFF7F7FE2870D1
:1015E00003E00120FFF7F2FE2870601EC4B26D1CFC
:1015F000002CEFD1FFF772FF0020D9E72DE9F04171
:1016000005460E4617469846FFF744FF002141EA7B
:101610004501C8B2FFF710FFFFF784FF20B1FFF7C5
:101620005DFF0120BDE8F0813046FFF705FFFFF7C1
:1016300079FF00240CE018F80400FFF7FDFEFFF727
:1016400071FF18B1FFF74AFF0120EBE7601CC4B23D
:10165000BC42F0DBFFF742FF0020E3E702461346FF
:1016600010E010782A2805D01078202802DB1078A6
:101670007A2801DDFF20704710782C2801D1481E00
:10168000C1B2521C0029ECD1D01AC0B2F3E700005D
:10169000F8B505460F4616A13846FEF777FD064613
:1016A00006213046FFF7DAFF0446FF2C05D030193B
:1016B000694600F05AFA85F84E0007213046FFF7D8
:1016C000CDFF0446FF2C05D03019694600F04DFAD5
:1016D00085F84F0009213046FFF7C0FF0446FF2C74
:1016E00005D03019694600F040FAC5F86300F8BD2E
:1016F00024475047474100002DE9F84305468846F6
:1017000029A14046FEF742FD064602213046FFF77A
:10171000A5FF0446FF2C05D03019694600F025FAD4
:1017200085F85C00002713E0F81CC1B23046FFF7D3
:1017300095FF0446FF2C08D03019694600F015FAD1
:10174000C1B205F15000C15500E003E0781CC7B2FA
:101750000C2FE9DB00BF0F213046FFF77FFF044667
:10176000FF2C05D03019694600F0FFF9A5F85D009F
:1017700010213046FFF772FF0446FF2C05D03019C8
:10178000694600F0F2F9A5F85F0011213046FFF735
:1017900065FF0446FF2C05D03019694600F0E5F9D5
:1017A000A5F86100BDE8F883244750475341000085
:1017B0002DE9FC5F07468A464FF00008CDF804A0EB
:1017C00044A10198FEF7E2FC0646F079303800F0BB
:1017D000FF0B03213046FFF741FF0546FF2D04D0E4
:1017E0007019694600F0C1F938704FF000096CE0DB
:1017F00038A10198FEF7CAFC064600245CE00420EC
:1018000000EB8400C1B23046FFF728FF0546FF2DEC
:1018100009D07019694600F0A8F9C1B208EB880236
:10182000781C815400E049E0052000EB8400C1B23F
:101830003046FFF713FF0546FF2D0AD070196946A1
:1018400000F093F9C1B208EB8802781C1044417093
:1018500000E033E0062000EB8400C1B23046FFF721
:10186000FDFE0546FF2D0AD07019694600F07DF98E
:1018700081B208EB8802781C1044418000E01DE032
:10188000072000EB8400C1B23046FFF7E7FE0546B3
:10189000FF2D0AD07019694600F067F9C1B208EB54
:1018A0008802781C1044017100E007E008F1010093
:1018B00000F0FF08601CC4B2042CA0DB00BF701C49
:1018C000019009F1010000F0FF09D94590DBBDE866
:1018D000FC9F000024475047535600002DE9F04F6D
:1018E00085B00446884682A14046FEF74FFC074675
:1018F00001213846FFF7B2FE0546FF2D23D07819A7
:1019000004A900F032F982469DF810100A2000F078
:1019100021F9BAFBF0F642F21070B6FBF0F0C1B25A
:10192000412001556420B6FBF0F06421B0FBF1F2D8
:1019300001FB1201422001556420B6FBF0F100FBCF
:1019400011614320015503213846FFF787FE054604
:10195000FF2D43D0781904A900F007F906469DF839
:101960001000801CC1B20A2000F0F4F8B6FBF0F0C1
:1019700060649DF81000801CC1B20A2000F0EAF8F3
:10198000B6FBF0F100FB116A5046FEF76AFE814695
:101990009DF81000C0F10500C1B20A2000F0DAF88D
:1019A0000090FEF75EFE83464946FEF759FC8246EC
:1019B0005149FEF787FC052102900A2000F0CAF881
:1019C000616C00FB01FA5046FEF74BFE0190029954
:1019D000FEF7EEFB0390FEF773FE606404213846C9
:1019E000FFF73CFE0546FF2D02D0785D84F84800E5
:1019F00005213846FFF732FE0546FF2D45D0781900
:101A000004A900F0B2F806469DF81000801CC1B28F
:101A10000A2000F09FF8B6FBF0F044F8490F9DF85B
:101A20001000801CC1B20A2000F094F8B6FBF0F15F
:101A300000FB116A5046FEF714FE81469DF8100027
:101A4000C0F10500C1B20A2000F084F80090FEF752
:101A500008FE83464946FEF703FC82462649FEF708
:101A600031FC052102900A2000F074F8216800FB87
:101A700001FA5046FEF7F5FD01900299FEF798FB3A
:101A80000390FEF71DFE44F8490906213846FFF78A
:101A9000E5FD0546FF2D02D0785D84F84D00092153
:101AA0003846FFF7DBFD0546FF2D1ED0781904A947
:101AB00000F05BF8064642F21070B6FBF0F0C1B2DF
:101AC000402001556420B6FBF0F06421B0FBF1F238
:101AD00001FB12013F2001556420B6FBF0F100FB31
:101AE000116000F5FA60A4F83D0005B0BDE8F08F84
:101AF0004750524D4300000000007042F8B50446C4
:101B00000D4612A12846FEF741FB06460721304646
:101B1000FFF7A4FD0746FF2F16D0F019694600F025
:101B200024F8A4F867009DF8000003280CDA9DF85B
:101B30000000C0F10300C1B20A2000F00BF8B4F8B5
:101B400067104843A4F86700F8BD000024475056CA
:101B50005447000010B50246012000E050430B003E
:101B6000A1F10104E1B2F9D110BD2DE9F34F81B02B
:101B700007463C460020009083468146002680466A
:101B800028E020782D2802D148F00208641C207833
:101B90002C2802D020782A2800D11CE020782E287A
:101BA00003D148F00108641C09E02078392802DCE0
:101BB0002078302803DA4FF0000900260BE008F007
:101BC000010010B1701CC6B203E009F1010000F081
:101BD000FF09641CD5E700BF08F0020000B17F1CBC
:101BE00000250EE0A9F10100401BC1B20A20FFF759
:101BF000B1FF795D3039009A00FB01200090681C2C
:101C0000C5B24D45EEDB052E00DD052602980670B7
:101C100000250EE0701E401BC1B20A20FFF79AFF9C
:101C200009F101012944795C303900FB01BB681CD2
:101C3000C5B2B542EEDB31460A20FFF78BFF0099B3
:101C400001FB00BA08F0020008B1CAF1000A5046D0
:101C5000BDE8FE8F08B54FF4A06000F065F82620BF
:101C60008DF8000001208DF801008DF802008DF83C
:101C70000300684600F020F81C208DF800000120C9
:101C80008DF8010002208DF8020001208DF803007C
:101C9000684600F011F827208DF8000000208DF82C
:101CA000010003208DF8020001208DF80300684632
:101CB00000F002F808BD000070B5002100230F22DB
:101CC000C47804B3154C246804F4E064C4F5E064FB
:101CD000210AC1F10403CA40447804FA03F184786C
:101CE0001440214309010E4C0678A155047804F0F4
:101CF0001F050124AC4005786D11AD0005F1E0250C
:101D0000C5F8004109E0047804F01F050124AC4047
:101D1000044D0678761145F8264070BD0CED00E0C4
:101D200000E400E080E100E002490143024A116062
:101D3000704700000000FA050CED00E029B1064AEA
:101D400052690243044B5A6104E0034A52698243D8
:101D5000014B5A61704700000010024029B1064A49
:101D6000D2690243044BDA6104E0034AD269824338
:101D7000014BDA61704700000010024029B1064AA9
:101D800012690243044B1A6104E0034A1269824358
:101D9000014B1A61704700000010024029B1064A49
:101DA00092690243044B9A6104E0034A92698243B8
:101DB000014B9A61704700000010024029B1064AA9
:101DC000D2680243044BDA6004E0034AD2688243DB
:101DD000014BDA60704700000010024030B500216E
:101DE0000022002400232D4D6D6805F00C0121B167
:101DF000042905D0082923D105E0294D056022E0FA
:101E0000274D05601FE0254D6D6805F47012234DC8
:101E10006D6805F48034022505EB92421CB9214D12
:101E2000554305600BE01D4D6D6805F400351DB18F
:101E30001C4D5543056002E0194D5543056002E015
:101E4000174D056000BF00BF144D6D6805F0F0012F
:101E50000909154D6B5C0568DD4045600F4D6D68E7
:101E600005F4E061090A104D6B5C4568DD40856052
:101E70000A4D6D6805F46051C90A0B4D6B5C4568ED
:101E8000DD40C560054D6D6805F44041890B074D87
:101E90006B5CC568B5FBF3F5056130BD0010024011
:101EA00000127A0000093D00A1000020B1000020CE
:101EB00010B500F001F810BD0CB5002001900090A5
:101EC0003348006840F480303149086000BF304832
:101ED000006800F4003000900198401C01900098C8
:101EE00018B90198B0F5A06FF1D12948006800F445
:101EF000003010B10120009001E000200090009817
:101F0000012843D12348006840F0100021490860AF
:101F10000846006820F0030008600846006840F0AA
:101F2000020008601A48406819494860084640683D
:101F300048600846406840F4806048600846406851
:101F400020F47C1048600846406840F4E81048607F
:101F50000846006840F08070086000BF0C480068C8
:101F600000F000700028F9D00948406820F0030014
:101F7000074948600846406840F00200486000BFDA
:101F80000348406800F00C000828F9D10CBD00009F
:101F9000001002400020024010B541A1424800F06C
:101FA00005FEC82241A1424801F0D4FF08B9002033
:101FB00010BD1E213E48FEF7DEF83EA13A4800F073
:101FC000F5FDC82239A13A4801F0C4FF08B9002044
:101FD000EEE71E213648FEF7CEF83AA1324800F06F
:101FE000E5FDC82231A1324801F0B4FF08B9002054
:101FF000DEE71E212E48FEF7BEF837A12A4800F082
:10200000D5FDC82229A12A4801F0A4FF08B9002063
:10201000CEE71E212648FEF7AEF836A1224800F092
:10202000C5FDC82221A1224801F094FF08B9002073
:10203000BEE71E211E48FEF79EF832A11A4800F0A6
:10204000B5FDC82219A11A4801F084FF08B9002083
:10205000AEE71E211648FEF78EF830A1124800F0B8
:10206000A5FDC82211A1124801F074FF08B9002093
:102070009EE71E210E48FEF77EF82C4801680A48AC
:1020800000F094FDC82209A1094801F063FF08B9D6
:1020900000208DE71E210648FEF76DF8012087E736
:1020A000415445300D0A0000004800404F4B0000ED
:1020B000620A002041542B434950534855540D0A9D
:1020C0000000000041542B4347434C4153533D22F1
:1020D00042220D0A0000000041542B434744434F65
:1020E0004E543D312C224950222C22434D4E455412
:1020F000220D0A0041542B43474154543D310D0AEF
:102100000000000041542B434950435347503D3198
:102110002C22434D4E4554220D0A000041542B43BE
:102120004950484541443D310D0A00009C000020C3
:10213000042808D14FF0E021096941F004014FF073
:10214000E022116107E04FF0E021096921F004016C
:102150004FF0E0221161704710B51348006840F05D
:1021600001001149086008464068104908400E49BE
:102170004860084600680E4908400B490860084658
:10218000006820F4802008600846406820F4FE00C3
:1021900048604FF41F008860FFF78AFE4FF0006030
:1021A0000449086010BD0000001002400000FFF864
:1021B000FFFFF6FE08ED00E010B50121880700F0F2
:1021C000A4F880B30121880700F090F81648006851
:1021D000401C15490860C82815D100200860134824
:1021E000007830B9012011490870002010490860BA
:1021F00009E00E480078012805D100200B4908703D
:1022000001200B4908600B48007801280BD10A48CF
:102210000068401C08490860B0F57A7F03D10020AF
:1022200008600449087010BD4000002048000020EC
:10223000A0012142980000204400002010B5012197
:10224000084800F062F860B10748008840F4004098
:10225000054908800121034800F048F8002000F0FB
:1022600031F810BD00080040960000207FB50546FB
:102270000C4601210420FFF771FDADF80450ADF8C4
:1022800000400020ADF80600ADF8020069460C4899
:1022900000F058F801221146094800F047F81E20C6
:1022A0008DF80C0001208DF80D0002208DF80E0035
:1022B00001208DF80F0003A8FFF7FEFC7FBD000092
:1022C0000008004010B5044644B10021064800F063
:1022D00036F80121044800F00CF803E00021024820
:1022E00000F007F810BD000000080040CA43028259
:1022F000704721B1028842F00102028004E00288A6
:102300004FF6FE731A400280704730B50246002037
:1023100000230024158A05EA0103958905EA0104D2
:1023200013B10CB1012000E0002030BD1AB1838947
:102330000B43838102E083898B43838170478184CF
:1023400070470000002202881D4B98420ED01D4BA2
:1023500098420BD0B0F1804F08D01B4B984205D06B
:102360001A4B984202D01A4B984204D14FF68F7301
:102370001A404B881A43174B984207D0164B984285
:1023800004D04FF6FF431A40CB881A4302808B8853
:1023900083850B8803850A4B98420BD0094B9842E2
:1023A00008D00E4B984205D00D4B984202D00D4BF1
:1023B000984201D10B7A0386012383827047000083
:1023C000002C01400034014000040040000800409F
:1023D000000C00400010004000140040004001408C
:1023E00000440140004801403EB505460C4601212D
:1023F0000846FFF7B3FC681E80B2ADF80400601E0B
:1024000080B2ADF800000020ADF80600ADF8020083
:1024100069464FF08040FFF795FF01221146900773
:10242000FFF784FF01218807FFF763FF3EBD70B50A
:102430008CB006460C46154601210846FFF77EFC87
:102440003046FEF713FC0194029510200390002003
:102450000490059080200690002007900890099035
:102460004FF480500A9000200B9001A93046FEF7EF
:10247000A3FC0CB070BD70B504460D46002120468B
:10248000FEF7E8FB29462046FEF7B4FC0121204672
:10249000FEF7E0FB70BD000010B540F22551134877
:1024A00000F089F908B3114800F040FAC4B21048AE
:1024B0000088B0F5487F12DA00210E48FFF73FFF91
:1024C0000B48008810B90120FFF7FCFE084801887E
:1024D0000088401C064A10800748445405E0044820
:1024E000008840F400400249088010BD00380140D7
:1024F00096000020000800401007002010B586B0AC
:10250000044601210420FFF749FC01218803FFF75D
:1025100045FC2E4800F0F4F84FF40070ADF81000C0
:1025200003208DF8120018208DF8130004A9284804
:10253000FEF762FC4FF48060ADF8100004208DF8C7
:10254000130004A92248FEF757FC00940020ADF8C0
:102550000400ADF80600ADF80800ADF80C000C2042
:10256000ADF80A006946194800F074F9012280218B
:10257000164800F0BBF8174A1449091D1648FFF722
:1025800056FF0121114800F0A5F8012240F2255123
:102590000E4800F03AF925208DF8140002208DF83D
:1025A000150003208DF8160001208DF8170005A8EE
:1025B000FFF782FB41F61F416320FFF757FE002023
:1025C00006490880FFF77EFE06B010BD00380140C6
:1025D0000008014048060020440002409600002008
:1025E00010B540F225511D4800F0E5F810B31B4826
:1025F00000F09CF9C4B21A48008800F40040C8B941
:102600001748008800F4804060B10A2C03D00020F5
:102610001349088020E01248008840F40040104927
:10262000088019E00D2C06D10D48008840F4804048
:102630000B49088010E00A480088C0F30D000949E2
:102640000C5407480088401C05490880084600884B
:10265000C72801DD0020088010BD000000440040B4
:1026600050000020A204002010B540F2255114486B
:1026700000F0A1F890B1124800F058F9C1B2114829
:1026800002780078401C0F4B18700F488154184690
:1026900000781E2802D11D201946087040F22441FE
:1026A000074800F088F848B1054800F03FF90649AE
:1026B00006A000F09BFA00200249087010BD00003F
:1026C0000048004058000020620A002025730D0ACF
:1026D0000000000021B1828942F40052828104E0AE
:1026E00082894DF6FF731A40828170471AB1838A3E
:1026F0000B43838202E0838A8B438382704700000E
:1027000010B504462048844209D101218803FFF70F
:1027100055FB00214FF48040FFF750FB32E01B488F
:10272000844209D101214804FFF728FB00214FF41E
:102730000030FFF723FB25E01548844209D1012131
:102740008804FFF71BFB00214FF48020FFF716FBE6
:1027500018E01048844209D10121C804FFF70EFB9C
:1027600000214FF40020FFF709FB0BE00A488442E8
:1027700008D101210805FFF701FB00214FF480106B
:10278000FFF7FCFA10BD0000003801400044004093
:1027900000480040004C004000500040024600202D
:1027A000B1F5007F00D100BF13880B400BB10120B1
:1027B00000E00020704770B5024600240023002589
:1027C000002040F66A16B14200D100BFC1F34215A5
:1027D00001F01F03012606FA03F3012D02D19689A9
:1027E000334006E0022D02D1168A334001E0968A7A
:1027F00033400C12012606FA04F41688344013B153
:102800000CB1012000E0002070BDF0B503460024AB
:1028100000260025002040F66A17B94200D100BF0B
:102820001846C1F3421401F01F06012707FA06F506
:10283000012C01D10C3004E0022C01D1103000E059
:1028400014301AB107682F43076002E00768AF43EE
:102850000760F0BD2DE9F04786B005460E4600241E
:10286000A24600BFA1460027B08900B100BF2F4695
:102870002C8A4CF6FF700440F08804432C82AC890B
:102880004EF6F3100440B08831890843718908433B
:102890000443AC81AC8A4FF6FF400440B089044346
:1028A000AC8201A8FFF79AFA1F48874202D1DDF8EF
:1028B00010A001E0DDF80CA0A88900F4004040B1B0
:1028C0000AEBCA0000EB0A1031684900B0FBF1F8CE
:1028D00007E00AEBCA0000EB0A1031688900B0FB80
:1028E000F1F86420B8FBF0F004012009642101FB39
:1028F0001089A88900F4004040B1322000EBC900E3
:10290000B0FBF1F000F00700044308E0322000EBD8
:1029100009106421B0FBF1F000F00F0004432C819A
:1029200006B0BDE8F0870000003801400146888805
:10293000C0F308007047C1F30802828070470000AE
:1029400070B50025002604E0681C85B2052001F062
:10295000ADF91548008800F4004008B9642DF3DB98
:10296000FA2D1BDA10480088C0F30E05002406E09B
:102970000E48005DB52800D103E0601C84B2AC4273
:10298000F6DB00BFAC4201D1022608E00749E01C9B
:10299000085C08B9032602E0002600E001260020BA
:1029A00001490880304670BD9600002010070020C5
:1029B00070B51B4C46F2B520208040F606106080B2
:1029C0000D20A0800020C4F806004FF6FF70C4F868
:1029D0000A000020C4F80E000420A07404F11403BF
:1029E0005A1E1121A01C00F0BDF800BF0D48806CDC
:1029F0000028FBD115210B484430FFF73CFD002592
:102A000005E0FFF79DFF00B903E0681CC5B2062D85
:102A1000F7DB00BF062D01D1012070BD0020FCE7CF
:102A2000480600200000024070B50546194C46F2E9
:102A3000B5202080062060801420A0800120A07195
:102A40000020E07120814FF40D60C4F80A00C4F842
:102A50000E5007206082A0820020E082208304F1D3
:102A60001B035A1E1821A01C00F07CF800BF0A4866
:102A7000806C0028FBD11C2107484430FFF7FBFC89
:102A8000C82001F013F92846FFF738FDFFF758FF7B
:102A900070BD0000480600200000024070B50546E9
:102AA0000E46124CC82D01DA012070BD46F2B52049
:102AB000208040F6060060800620A080E58001208E
:102AC0002081668104F10D035A1E0A21A01C00F02A
:102AD00049F800BF0648806C0028FBD10E2104484D
:102AE0004430FFF7C8FCFFF72BFFDEE74806002065
:102AF000000002402DE9F04105460E461746174CEE
:102B000046F2B520208040F2067060801420A0803C
:102B1000C4F80650C4F80A60A7730020E07320745C
:102B200060744FF44D7060820020A082C4F81600DB
:102B300004F11B035A1E1821A01C00F013F800BF5B
:102B40000748806C0028FBD11C2105484430FFF762
:102B500092FCFFF7F5FEBDE8F0810000480600207A
:102B60000000024070B50446002515701D7000205D
:102B700009E01578265C354415701D7816783544C3
:102B80001D70451CA8B28842F3DB70BD70B50446C9
:102B90000D4629462046FFF7CEFE00BF8021204685
:102BA000FFF7FCFD0028F9D070BD000070B50646A7
:102BB0000C46002521460AA000F018F800BF615D10
:102BC0003046FFF7E3FF6D1C605D0028F7D100BFC2
:102BD00040213046FFF7E2FD0028F9D070BD00002B
:102BE000737472203D2025730D0A00000FB4054B4D
:102BF00010B503A9044A029800F060F910BC5DF812
:102C000014FB0000993F00084C0000200FB4084B53
:102C100010B504A902AA039800F050F9044602A9CD
:102C2000002000F0E2FC204610BC5DF814FB000020
:102C3000EB350008490050EAC12018BF04204A0DB6
:102C400018BF40F0010040F2FF72B2EB515F08BFC5
:102C500040F00200012808BF052070472DE9F0412F
:102C60004F1E00EBC7010446D1E9000115461E4680
:102C700037F006020DD02A463346FDF708FC7F1ECA
:102C800004EBC703D3E90023FDF75AFB37F0060234
:102C9000F1D1022F25D0042F13D0062F18BFBDE885
:102CA000F0812A463346FDF7F2FBD4E90A23FDF70B
:102CB00047FB2A463346FDF7EAFBD4E90823FDF734
:102CC0003FFB2A463346FDF7E2FBD4E90623FDF736
:102CD00037FB2A463346FDF7DAFBD4E90423FDF738
:102CE0002FFB2A463346FDF7D2FBD4E90223FDF73A
:102CF00027FB2A463346FDF7CAFBD4E90023BDE88B
:102D0000F041FDF71DBB0122FDF719BEFDF718BB11
:102D10000022134610461146FDF72BBC024A002044
:102D20001107FDF70CBE000001FDFFFF02E008C81F
:102D3000121F08C1002AFAD170477047002001E035
:102D400001C1121F002AFBD1704700000149086031
:102D500070470000CC0000202DE9FF5FDDE9022074
:102D6000010DDDF838B0024318D044F61050A1F23E
:102D7000FF3141430D140F98012820D0A5EB0B0023
:102D8000401C5FEA000A4FF00004474EDFF81C9138
:102D9000A046504616D5CAF1000728E00F98012436
:102DA00043A2012808D0002100980F9BC0E9002110
:102DB000C0E90243BDE8FF9F6FEA0B01F4E7CBF1E6
:102DC0000000DEE7074612E0F80707D02246334648
:102DD00040464946FDF75BFB80468946224633461E
:102DE00010461946FDF753FB04460E467F10002F90
:102DF000EAD1DDE90201BAF1000F42464B4602DAA0
:102E0000FDF745FB01E0FDF7B4FB04460E4600224A
:102E1000284BFDF7C3FD03D84FF0FF30014607E014
:102E20000022254B20463146FDF78AFAFDF79EFD2C
:102E3000102409E0002C0ADB0A220023FDF799FC8C
:102E4000019B30321A55641E50EA0102F2D1641C13
:102E5000019AC4F1110314440F9A012A03D00122EC
:102E600008430DD10AE0084304D000204FF0110BB5
:102E70000F9080E7A3EB0B056D1E0DE05B4504DDB5
:102E80004FF0000205F1010504E003DA4FF0000203
:102E9000A5F10105002AECD000980F99C0E9023194
:102EA000C0E9004586E70000000024400000F03F34
:102EB000300000000000F0430000E03F2DE9FF4F2C
:102EC00095B09B468946064600250FE2252877D116
:102ED00000242746F84A0121059400E0044316F82F
:102EE000013F203B01FA03F01042F7D130782A2845
:102EF00011D06FF02F033078A0F13002092A16D8D4
:102F0000059A44F0020402EB820203EB42021044F1
:102F1000761C0590EFE759F8042B0592002A03DA96
:102F2000504244F40054059044F00204761C30787A
:102F30002E2816D116F8010F44F004042A280DD0CB
:102F40006FF02F023078A0F13003092B09D807EB7E
:102F5000870302EB4303C718761CF3E759F8047B99
:102F6000761C30786C280FD006DC4C2817D06828E7
:102F70000DD06A2814D104E0742810D07A280FD11B
:102F80000DE044F400140AE044F4801401E044F439
:102F900040147278824202D104F58014761C761CAB
:102FA000307866280BD013DC582877D009DC00284D
:102FB00075D04528F6D04628F4D047281AD19DE18F
:102FC00018E0632835D0642879D0652812D195E1BE
:102FD000702873D008DC6728F1D069286FD06E287C
:102FE0000DD06F2806D1B5E073282CD0752875D088
:102FF000782874D05A46179990476D1C75E1C4F330
:103000000250022809D003280DD0D9F80010042856
:103010000DD00D6009F1040967E1D9F80010EA1735
:10302000C1E90052F6E7D9F800100D80F2E70D7003
:10303000F0E719F8041B8DF8001000208DF801004E
:10304000EA46012003E059F804AB4FF0FF30610776
:103050004FF0000102D40DE008F101018846B942A9
:103060000FDA8045F8DB1AF808100029F4D108E0DF
:1030700008F1010188468142FADB1AF8081000299C
:10308000F6D105985B46A0EB080721463846179A0B
:1030900000F094FA284400EB080507E04DE029E130
:1030A0000DE01AF8010B5A4617999047B8F101083C
:1030B000F7D25B4621463846179A13E142E00A22CE
:1030C0000092C4F302524FF0000A022A08D059F8C5
:1030D00004CB032A4FEAEC710AD00DE029E02AE084
:1030E00009F1070121F00702F2E802C1914609E067
:1030F0000FFA8CFC4FEAEC71042A03D14FFA8CFCD6
:103100004FEAEC71002907DA0A460021DCF1000CD5
:1031100061EB02012D2202E0220504D52B228DF85D
:103120000420012203E0E20701D02022F7E79046C5
:1031300059E00A2102E010220DE010214FF0000AB0
:1031400000910BE010224FF0000A44F0040408271D
:10315000009203E008224FF0000A0092C4F30252EA
:10316000022A05D059F804CB0021032A08D009E02F
:1031700009F1070121F00702F2E802C1914605E0DA
:103180001FFA8CFC042A01D10CF0FF0C4FF0000850
:10319000220728D5702806D0009B83F0100353EA3D
:1031A0000A0305D00EE040228DF80420012208E039
:1031B0005CEA010206D030228DF804208DF805006B
:1031C00002229046009B83F0080353EA0A030AD1C7
:1031D0005CEA010201D1620705D530228DF8042096
:1031E0004FF001087F1E582804D034A003900EA889
:1031F00002900DE036A0F9E753466046009AFDF7CD
:10320000B8FA84460398825C0298401E02900270CD
:103210005CEA0100F0D1029806A9081A00F1200A20
:10322000600702D524F4803400E00127574502DD11
:10323000A7EB0A0000E0002000EB0A0100900598CF
:103240004144401A0590E00306D45B462146179A94
:10325000059800F0B3F90544002706E001A85A4696
:10326000C05D179990476D1C7F1C4745F6DBE00356
:103270000CD55B462146179A059800F09FF9054446
:1032800004E030205A46179990476D1C0099481E5B
:1032900000900029F5DC08E0029802995A4600786F
:1032A000491C0291179990476D1CBAF10001AAF1CF
:1032B000010AF1DC65E100000928010030313233F8
:1032C0003435363738396162636465660000000062
:1032D000303132333435363738394142434445464C
:1032E0000000000000F058F90544761C30780028F2
:1032F0007FF4ECAD19B02846BDE8F08F620700D42A
:10330000062709F1070222F0070CFCE80223E14638
:1033100003F000485FEA080C02D00FF2702C0DE0B9
:103320005FEA045C02D50FF2682C07E05FEAC47C18
:1033300002D00FF2602C01E0AFF2700C4FF0FF38BA
:1033400023F00043CDF850C065280CD006DC45289A
:1033500009D046281DD047283DD13DE0662818D029
:1033600067287ED138E00021112F01DB112000E019
:10337000781CCDE9000106A90EA8FFF7EDFCDDE9F8
:103380000F010E9A03910021009207F1010A0491A6
:103390004DE04FF000400097CDE9011006A90EA8BE
:1033A000FFF7DAFCDDE90F0203920E9B1199002270
:1033B000DDF80CA00093049211B9791C00EB010A0E
:1033C000B7EB0A0004D4C0F1FF3007F1010A049002
:1033D000AAEB0700019044E0012F00DA0127002149
:1033E000112F01DD112000E03846CDE9000106A9CA
:1033F0000EA8FFF7B1FCDDE90F010E9A0391002141
:1034000004910092BA4621070CD40399514500DA81
:103410008A46BAF1010F05DD009AAAF10101515C5B
:10342000302908D0B84202DA10F1040F06DA01217F
:10343000CDE9011015E0AAF10101E9E7002805DC5A
:10344000049901440491AAEB000102E0411C51459A
:1034500000DD8A460499401A401C01904FF000405C
:103460000290200704D40198504501DBCDF8048078
:1034700000208DF84F0002980DF14F07B0F1004F7A
:1034800025D02B200E9002984FF0020800280CDA6D
:10349000404202902D200E9007E00A210298FDF78D
:1034A00052F93031029007F8011DB8F10001A8F17E
:1034B0000108F2DC02980028EFD1791E0E980870FE
:1034C000307800F0200040F0450007F8020D12A807
:1034D000C01B00F107081498007800B1012000EB30
:1034E0000A01019801EBE07105984144401A401E21
:1034F0000590E00306D45B462146179A059800F034
:103500005DF805441498007818B15A461799904709
:103510006D1CE00324D55B462146179A059800F000
:103520004DF805441CE00498002807DBDDE90301A1
:10353000884203DD0098405C179901E0179930201C
:103540005A469047049805F10105401C04900198E3
:10355000401E019004D12E205A46179990476D1CA9
:10356000BAF10001AAF1010ADDDC05E017F8010B50
:103570005A46179990476D1CB8F10001A8F101084F
:10358000F4DC5B462146179A0598ABE62D00000057
:103590002B000000200000002DE9F041044600252A
:1035A0001E461746880404D405E039462020B0475B
:1035B0006D1C641EF9D52846BDE8F0812DE9F04167
:1035C000044600251E469046C80301D5302700E07A
:1035D0002027880404D505E041463846B0476D1CD5
:1035E000641EF9D52846BDE8F0810A68531C0B60BB
:1035F000107070472DE9F04D8D4F21F0004A86B0D4
:1036000005460C46BA452ADBAAEB070028430AD038
:103610008848824501DC1AD1CDB106B02846BDE804
:10362000F04DFFF770BB844A844B2846FCF72FFF10
:1036300007460E46824A834B28462146FCF727FF61
:1036400006B03A463346BDE8F04DFCF779BE01209E
:10365000FFF77CFB06B0BDE8F04DFFF759BB7A4899
:10366000824542DABAF1795F0BDA2846FFF7E2FACF
:10367000042808BFFFF752FB284606B02146BDE8E4
:10368000F08D2A460B461046FCF701FF83460246A2
:103690006E480E460B4606217844FFF7DFFA5A467D
:1036A0003346FCF7F4FE804669488A465A4633465C
:1036B00004217844FFF7D2FA5A463346FCF7E7FE76
:1036C00000223B46FCF73CFE02460B464046514674
:1036D000FCF74FFF2A462346FCF7D9FE06B02A46E0
:1036E0002346BDE8F04DFCF72BBE284624F00041F0
:1036F00000223D463B46FCF7C7FE4FF0FF32FDF788
:103700001EF90646024653480F460B4606217844EA
:10371000FFF7A4FA32463B46FCF7B9FECDE90001BB
:103720004D4832463B4604217844FFF797FA32462B
:103730003B46FCF7ACFE00222B46FCF701FE83461D
:1037400002913046394601F055F8804643480D460F
:10375000504517DCDDE900015A46029BFCF709FFE2
:1037600042462B46FCF793FE42462B46FCF7E8FD0B
:103770000122FDF7E4F8304A304BFCF782FE304A74
:10378000304B4CE04FF0000A52460B464046FCF7E7
:10379000D7FDCDE9031052462B4610461946FCF7DB
:1037A00076FE32463B46FCF76FFEDDE90332FCF75E
:1037B000E0FE06460F46DDE900015A46029BFCF793
:1037C000D8FE83460091012230463946FDF7B7F80E
:1037D000194A1A4BFCF758FE06460F46012240468E
:1037E0002946FDF7ACF85A46009BFCF750FE3246DE
:1037F0003B46FCF746FE06460F4601225046294648
:10380000FDF79DF80E4DDFF858802A464346FCF739
:103810003BFE32463B46FCF737FE2A464346FCF762
:1038200033FE002CD8BF81F0004106B0BDE8F08D1A
:103830000000F03F0000F07F075C143326A6913CA7
:10384000182D4454FB21F93F0000E03F0C13000009
:103850002213000096120000AC1200003333EF3F39
:10386000FB21E93F2DE9F84F04460D4621F00040C9
:1038700000917349814211DC7249884201DC06D112
:103880002CB120462946BDE8F84FFFF73CBA6E48F8
:10389000002DCCBF6D496E49BDE8F88F6D4981425E
:1038A00011DD6D498142D8BF4FF0FF366DDD2046F6
:1038B0002946FFF7BFF9042808BFFFF72FFA204673
:1038C0002946BDE8F88F6549654F25F000458142DE
:1038D00033DD6449814219DD002632464FF08043D2
:1038E00020462946FCF72CFD80468A4601222046C8
:1038F0002946FDF724F800223B46FCF7C2FD42466C
:103900005346FCF736FE04460D463EE001260022F3
:10391000BA463B4620462946FCF712FD80460F4634
:103920000022534620462946FCF7ABFD42463B4663
:10393000FCF71FFE04460D4627E04B4981421BDD84
:10394000DFF828A102260022534620462946FCF72C
:103950009EFD00223B46FCF7F3FC80460F4600220A
:10396000534620462946FCF78CFD42463B46FCF771
:1039700000FE04460D4608E0032622462B460020A2
:103980003B49FCF7F6FD04460D4622462B46104601
:103990001946FCF77CFD8B46824602460B46FCF737
:1039A00076FD07460246334888460B460621784492
:1039B000FFF754F952465B46FCF769FD82462E48F4
:1039C0008B463A46434605217844FFF747F93A4685
:1039D0004346FCF75CFD02460B46002E5046594616
:1039E0000CDAFCF7ADFC22462B46FCF750FD01B08B
:1039F00022462B46BDE8F04FFCF746BDFCF7A0FC85
:103A000022462B46FCF743FD1C4A7A4402EBC603D0
:103A1000D3E90023FCF735FD22462B46FCF731FDA8
:103A2000174A7A4402EBC603D3E90023FCF72CFDC6
:103A3000009A002AB8BF81F00041BDE8F88F00006D
:103A4000000010440000F07F182D4454FB21F93F82
:103A5000FB21F9BF0000DC3F0000203E0000F33FE7
:103A60000000F03F0000E63F008003400000F83F08
:103A70000000F0BFAE1000006C1000000A10000043
:103A8000D20F00002DE9F04D9446CCF1000423F054
:103A900000464CEA0404524F46EAD4749A468846DB
:103AA00021F00042BC4206D8454240EA050442EA01
:103AB000D474BC4204D9BDE8F04D6246FFF726B984
:103AC000AAF14055A5F17F6555EA0C040BD00224FC
:103AD00004EAAA74434DDFF810E144EAD87452EACC
:103AE000000B04D00CE0BDE8F04DFFF7BBBE002C8E
:103AF00014BF012CBDE8F08D022C30D0032C32D045
:103B000056EA0C0B0AD0BE4220D1BA4209D126F0A7
:103B1000804622F080423346114617E000291ADB26
:103B200025E0DFF8C8B0FB44002C04BFDBE900014E
:103B3000BDE8F08D012C02BFDBE9000181F00041FE
:103B4000BDE8F08D022C0AD0032C0CD0BA4212D161
:103B5000B8F1000F0BDA23482549BDE8F08D28465F
:103B60002449BDE8F08D28467146BDE8F08D1D481A
:103B70002149BDE8F08D921B12153C2AC4BF19489B
:103B80001D490EDCBAF1000FBEBF12F13C0F002040
:103B9000014606DB6246FCF7ECFC21F00041FFF732
:103BA00061FE002C08BFBDE8F08D012C04BF81F040
:103BB0000041BDE8F08D114A114B022C07D0FCF7F3
:103BC00060FC2A46BDE8F04D0A4BFCF75ABCFCF7F6
:103BD00058FC2A46BDE8F04D064BFCF755BC0000EA
:103BE0000000F07F182D4454FB2109C0660F00002F
:103BF000FB21F9BFFB210940FB21F93F075C14338E
:103C000026A6A13C2DE9F0410446E07800F0C0066C
:103C1000E07800F03F05607800F0010098B1EF1007
:103C20002846E91705EB5171C910A5EBC101491CE4
:103C300001F0FF080B48006820B10A4841460268BD
:103C40003846904700BF607800F0080030B1054862
:103C5000406818B1B011034A516888470020BDE898
:103C6000F08100003406002010B56FF00400FEF76C
:103C70005FFA0A4800680A49B0FBF1F00949087088
:103C80000846007800EB4001C1EBC0104FF6FF7111
:103C900001EAC0000449088010BD0000B8000020FF
:103CA00000127A005A0000205C0000200146114AF0
:103CB00012884A434FF0E0235A6100229A611A4663
:103CC000126942F001021A6100BF4FF0E022106950
:103CD00000F001021AB100F48032002AF5D04FF052
:103CE000E022126922F001024FF0E0231A61002263
:103CF0009A6170475C0000200146114A12784A43DD
:103D00004FF0E0235A6100229A611A46126942F08C
:103D100001021A6100BF4FF0E022106900F00102B9
:103D20001AB100F48032002AF5D04FF0E022126977
:103D300022F001024FF0E0231A6100229A617047DD
:103D40005A00002038B5044614B94FF0FF3038BD92
:103D50006A4604214FF4587000F028FC10B14FF06F
:103D6000FF30F4E79DF8000000069DF8011040EADE
:103D700001409DF8021040EA01209DF8031008431D
:103D800020600020E3E700002DE9F04F8DB00746EA
:103D9000884615469946DDE9166B002400203080E0
:103DA0006B49887B5A4605A900F0A0FB18B1601E3C
:103DB0000DB0BDE8F08F6648807A00F0140000284E
:103DC00067D09DF8140000069DF8151040EA0140E8
:103DD0009DF8161040EA01209DF81710084328604E
:103DE0009DF8180000069DF8191040EA01409DF862
:103DF0001A1040EA01209DF81B10084368609DF8E6
:103E00001C0000069DF81D1040EA01409DF81E10A0
:103E100040EA01209DF81F100843A8609DF820008B
:103E200000069DF8211040EA01409DF8221040EA6A
:103E300001209DF823100843E86004F11000C4B28B
:103E4000286800140190686800140290A8680014A3
:103E50000390E8680014049001984043029901FB24
:103E60000100039901FB0100049901FB010ABAF169
:103E7000706F02DBBAF1885F05DD00F0D7FB002030
:103E80003080401E94E7B6F9000040F48070308026
:103E900000BF2F48807A00F0400020B305A9601CC5
:103EA000085C095D40EA012000B2A8F8000005A9FD
:103EB000E01C095C05AAA01C105C41EA002000B2CD
:103EC000A8F8020005A9601D095C201D105C41EAEC
:103ED000002000B2A8F80400A01DC4B2B6F900008A
:103EE00040F0080030801A48408900F4C07008B3E0
:103EF00005A9601C085C095D40EA012000B2388019
:103F000005A9E01C095C05AAA01C105C41EA002080
:103F100000B2788005A9601D095C201D105C41EA93
:103F2000002000B2B880A01DC4B2B6F9000040F075
:103F3000700030800648807A00F0030018B105A9AF
:103F40000819FFF75FFE484600F0BCF900202FE794
:103F5000340600202DE9F04106460F46144625465A
:103F60004FF0000802E00A20FFF7A0FE3946304675
:103F7000FCF70CF918B9681E80B20500F3D115B929
:103F80000020BDE8F0814FF00108B8F1000F01D02A
:103F90000120F6E70020F4E700BF054A128802F08E
:103FA0004002002AF9D0C2B2014B1B1D1A80704793
:103FB0000044004010B530A13148FEF7F7FD642001
:103FC000FFF774FEC8222FA12F48FFF7C3FFB0B937
:103FD00029A12B48FEF7EAFD01202C49087000BFFB
:103FE0002A4800780028FBD1C82226A12648FFF7DE
:103FF000B1FF20B926A0FEF7F9FD002010BD1E215B
:104000002148FCF7B8F827A11D48FEF7CFFD012095
:104010001E49087000BF1D4800780028FBD12449C4
:10402000087018E01FA11648FEF7C0FD21A0FEF79A
:10403000DDFD01201549087000BF144800780028F4
:10404000FBD11B480078401CC0B2194908701428E5
:1040500001D10020D2E7C8221AA10B48FFF77AFF4E
:104060000028DFD01E210848FCF785F818A0FEF7CD
:10407000BDFD0120C2E7000041540D0A0000000010
:10408000004800404F4B0000620A002098000020CA
:104090004154B2E2CAD4D6B8C1EEB4EDCEF30D0AA3
:1040A0000000000041542B435245473F0D0A0000D9
:1040B000A000002053656E64206572726F720D0A55
:1040C000000000002B435245473A20302C310000BD
:1040D0007A687563652073756363657373206F6BAE
:1040E0000D0A000086B0FFF7BFFD4FF4E13000F08D
:1040F000A7FB4FF4165000F0E3FB48214FF47A7011
:10410000FEF772F9FCF7D6FCFDF7A4FDFCF718FFEB
:104110003BA0FEF76BFDFFF74DFF3D4908700846D9
:10412000007818B1FDF738FF394908703848007831
:1041300018B138A0FEF75AFD02E03CA0FEF756FD8C
:1041400001204049087000BF3E4800780028FBD19C
:1041500001203C49087000BF3A4800780028FBD194
:104160004CE039493948FCF728FD37480278374890
:10417000017837A0FEF73AFDFCF72CFF6420FFF72B
:1041800095FD394A39493A4800F09EF8002828D16F
:10419000FDF796F80446FCF75BFA364908603248AA
:1041A0000068FCF7A1FA04460D4630480068FCF7A9
:1041B0009BFA06460F462E480068FCF795FA8046A3
:1041C00089462C480068FCF78FFA824652460B4617
:1041D00029A0CDE90089CDE90267CDE90445FEF7C4
:1041E00005FD3248FFF7AEFD3149087008460078FA
:1041F00020B92E4801682FA0FEF7F8FCB1E70000B7
:1042000043505520537461727421200D0A00000040
:10421000000000204750525320C4A3BFE9B3F5CAA1
:10422000BCBBAFB3C9B9A621200D0A0047505253F9
:1042300020C4A3BFE9B3F5CABCBBAFCAA7B0DC2199
:10424000200D0A009800002019000020180000200E
:1042500074656D70203D202564202C736869203DB5
:104260002025640D0A000000280000202400002002
:10427000200000201C00002074656D70203D20256A
:1042800066202C207069746368203D202566202CF0
:10429000726F6C6C20203D202566202C7961772080
:1042A00020203D2025660D0A00000000300000207F
:1042B0002C000020636F756E74203D20256C640D0A
:1042C0000A000000704700002DE9F04F99B0044645
:1042D0000D4616464FF07E574FF000084FF000098C
:1042E0004FF0000A12A813A918AB0EAACDE90010CE
:1042F00014A916A8FFF748FD18B1012019B0BDE8B0
:10430000F08FBDF84C0000F4807000287ED00E982D
:10431000FCF79EF983464FF09D41FBF7D3FF07461C
:104320000F98FCF795F983464FF09D41FBF7CAFFC4
:1043300080461098FCF78CF983464FF09D41FBF7BF
:10434000C1FF81461198FCF783F983464FF09D41E8
:10435000FBF7B8FF824639464FF08040FBF780FFFD
:1043600049460590FBF77CFF414607904FF04040DF
:10437000FBF776FF51460590FBF772FF0690079911
:10438000FBF716FF8346FCF7AFF9CDE90801FFF70D
:1043900031F94FF06632544BCDE90A01FCF777F85A
:1043A000CDE90C01FCF7B3F9206049464FF080409D
:1043B000FBF756FF49460290FBF752FF4146049037
:1043C0004FF04040FBF74CFF41460290FBF748FF9F
:1043D00003900499FBF73EFF83464FF07E51FBF7B5
:1043E000E7FE0590FCF780F9CDE9080139464FF06A
:1043F0008040FBF735FF41460390FBF731FF49460C
:1044000004904FF08040FBF72BFF00E068E051463E
:104410000390FBF725FF83460499FBF7C9FE05903F
:10442000FCF762F9CDE90601DDE90823FFF72AFB75
:104430004FF066322C4BCDE90A01FCF728F8CDE9A4
:104440000C01FCF764F9286051465046FBF708FF61
:10445000494604904846FBF703FF41460390404617
:10446000FBF7FEFE394601903846FBF7F9FE009057
:104470000199FBF79DFE02900399FBF7EBFE834643
:104480000499FBF7E7FE0590FCF72EF9CDE908014A
:1044900051463846FBF7E4FE494604904046FBF798
:1044A000DFFE03900499FBF783FE4FF080410590F7
:1044B000FBF7D6FE8346FCF717F9CDE90601DDE9E7
:1044C0000823FFF7DFFA4FF06632074BCDE90A0108
:1044D000FBF7DDFFCDE90C01FCF719F9306001E0D5
:1044E00002200BE7002009E766A64C40F8B5044619
:1044F0000F4616462C4890F8240010B94FF0FF30B4
:10450000F8BD2948807A10B94FF0FF30F8E7264A05
:104510001268917A244A526810786B460222FDF79D
:1045200033F810B14FF0FF30EAE79DF801009DF835
:10453000001040EA0125A54203DA00203070401E39
:10454000DEE7194840684088B5EB600F17DD164A72
:104550001268517C144A526810786B460122FDF7AC
:1045600013F810B14FF0FF30CAE79DF8000000F0DB
:10457000100020B100F05AF86FF00100C0E7E2B27D
:10458000094B1B68D97A084B5B6818783B46FCF7E7
:10459000FBFF10B14FF0FF30B2E795FBF4F0401E87
:1045A00030700020ACE7000060000020F8B5044641
:1045B0000D46164616B94FF0FF30F8BD1A48807AFE
:1045C00010B94FF0FF30F8E720128DF80000E0B28C
:1045D0008DF801009DF80100284413494968498974
:1045E000884202DD4FF0FF30E7E70F4A1268117E84
:1045F0000D4A526810786B460222FCF7FFFF10B19B
:104600004FF0FF30D9E7EAB2074B1B68597D064BE4
:104610005B6818783346FCF7B7FF10B14FF0FF30F6
:10462000CBE70020C9E700006000002008B5704813
:10463000807A10B94FF0FF3008BD002000906C4A1E
:104640001268D17B6A4A526810786B460122FCF7E7
:10465000D5FF10B14FF0FF30EEE7654A126851798F
:10466000634A526810786B460122FCF7C7FF10B10D
:104670004FF0FF30E0E75E4A126811795C4A5268F9
:1046800010786B460122FCF7B9FF10B14FF0FF30F4
:10469000D2E7574890F82400002853D00C2000900F
:1046A000534A12681179524A526810786B460122B7
:1046B000FCF7A4FF10B14FF0FF30BDE73220FFF749
:1046C000F5FAC02000904A48807A00F0010020B13D
:1046D0009DF8000040F020000090454A12681179D2
:1046E000434A526810786B460122FCF787FF10B1ED
:1046F0004FF0FF30A0E73E48407C10B10220009010
:1047000001E0002000903A4A1268D17B384A526892
:1047100010786B460122FCF771FF10B14FF0FF30AB
:104720008AE700200090324A12685179304A526874
:1047300010786B460122FCF761FF002855D04FF03E
:10474000FF3079E704200090294A12681179284A3D
:10475000526810786B460122FCF750FF10B14FF001
:10476000FF3069E72248807C20B92148807A00F038
:10477000010010B94020009001E0602000901C4A28
:10478000126811791A4A526810786B460122FCF7B8
:1047900035FF10B14FF0FF304EE73220FFF786FAB9
:1047A0001348407C10B10120009001E000200090EF
:1047B0000F4A1268D17B0E4A526810786B4601226C
:1047C000FCF71CFF10B14FF0FF3035E7084A1268C4
:1047D0005179074A52681078054B10330122FCF7D3
:1047E0000DFF10B14FF0FF3026E7002024E7000056
:1047F000600000202DE9F04106460F46FCF708F95D
:1048000004000D4618BF0120284320F00040C0F1ED
:104810007F6000F1E040C00F0ED0301C18BF0120B7
:10482000384320F00040C0F17F6000F1E040C00F4D
:1048300004BF0120FEF78AFA20462946BDE8F08130
:1048400010B586B0044601210420FDF7A7FA012126
:104850004804FDF783FA0420ADF8140003208DF816
:10486000160018208DF8170005A91348FCF7C4FAA4
:104870000820ADF8140004208DF8170001940020E2
:10488000ADF80800ADF80A00ADF80C00ADF8100066
:104890000C20ADF80E0001A90848FDF7DBFF01224E
:1048A00040F225510548FDF7B0FF01210348FDF70F
:1048B00011FF06B010BD0000000801400044004098
:1048C00010B586B0044601210820FDF767FA0121E2
:1048D0008804FDF743FA4FF48060ADF8140003201C
:1048E0008DF8160018208DF8170005A91848FCF758
:1048F00083FA4FF40060ADF8140004208DF817001F
:1049000005A91348FCF778FA01940020ADF80800D7
:10491000ADF80A00ADF80C00ADF810000C20ADF8B1
:104920000E0001A90B48FDF795FF012240F2255129
:104930000848FDF76AFF012240F224410548FDF7CF
:1049400064FF01210348FDF7C5FE06B010BD00005D
:10495000000C01400048004075191A0C6A231B1C0A
:104960001F207274433B4138393A6B6C376F062411
:104970006D6E70006800000476005401F7FD0001C0
:10498000830000000008000000010018320005004C
:10499000000020410000D242295C0F3E9A99993EC6
:1049A0003333733F295C0F3E555555555555C53F1B
:1049B0007D6FEB0312D6D4BF5544880E55C1C93F55
:1049C0003B8F68B52882A4BF88B20175E0EF493FEC
:1049D00009F7FD0DE13D023F4B2D8A1C273A03C02C
:1049E000C88A599CE52A004059018D1B6C06E6BF18
:1049F00082922EB1C5B8B33F4FBB610567ACDD3FB6
:104A0000182D4454FB21E93F9BF681D20B73EF3FF5
:104A1000182D4454FB21F93FE2652F227F2B7A3C6D
:104A2000075C143326A6813CBDCBF07A8807703C26
:104A3000075C143326A6913CC4EB98999999C9BF99
:104A4000711623FEC671BCBF6D9A74AFF2B0B3BFCE
:104A50009AFDDE522DDEADBF2F6C6A2C44B4A2BF8E
:104A60000D5555555555D53FFF8300922449C23FFA
:104A70006E204CC5CD45B73F513DD0A0660DB13F2E
:104A8000EB0D76244B7BA93F11DA22E33AAD903F40
:104A90000000000000000000203244200000000060
:104AA00020334420000000004661696C00000000D3
:104AB00041542B43495053544152543D2254435086
:104AC000222C223130332E34362E3132382E3433EC
:104AD000222C35363639350D0A000000FC4A000814
:104AE00000000020D00000002C2D0008CC4B000856
:104AF000D0000020B00D00003C2D00080000000098
:104B0000A84A0008A84A0008984A0008A04A0008D5
:104B10000000000000000000000000000000000095
:104B20000000000000000000000000000000000085
:104B30000000000000000000000000000000000075
:104B40000000000000000000000000000000000065
:104B500000000000000000000000000058490008AC
:104B60007449000800000000000000000000000080
:104B70000000000000000000000000000000000035
:104B80000000000080490008010000000100000052
:104B90000100000000000000B04A00080000000012
:104BA00000010203040102030406070809020406C7
:104BB0000800000000A24A040000000000000000FD
:0C4BC000010203040607080900000000C1
:0400000508000131BD
:00000001FF
